:02000000942941
:10000800FF00030E8301E1000A08E2008A010B1DCC
:1000180011280B11A00A0C30810062088A00610EB9
:080028008300FF0E7F0E0900AA
:1000300083120313F801F9011030FC00710DF80D63
:10004000F90D7408F8027508031C750FF9020318FE
:1000500030287408F80775080318750FF90703109E
:0A006000F00DF10DFC0B1E28080046
:0C006A0083160313650883128800080049
:1000760083120313F101F201831666087202031D4F
:1000860046286508710203185328F301C830730225
:1000960003184F28F30A4928F10A0319F20A3F28E0
:0200A600080050
:1000A80083120313EF0105306F02031862286F08EB
:1000B8006E07840020308000EF0A57286F086E070B
:1000C80084008001EF036F086E078316E4000A308E
:1000D800F400F50183126C08F0006D08F100182097
:1000E8007808F0007908F1003030F00783166408CA
:1000F8008400700880000A30F400F50183126C084F
:10010800F0006D08F10018207008EC007108ED008F
:1001180000307106031D922800307006031D9528D3
:080128009728EF036728080087
:0E0130008312031360088A005F088200080033
:10013E008312031389146C088316E5003520091009
:10014E0003308316E5000030E6003B2083120313D4
:10015E00891003308316E5000030E6003B20831241
:06016E00031389140800D0
:100174008312031389146C088316E50035200914CF
:1001840003308316E5000030E6003B20831203139E
:10019400891003308316E5000030E6003B2083120B
:0601A4000313891408009A
:1001AA0083120313E4016408630784000008003A19
:1001BA000319E7286408630784000008EC00BA20E2
:0601CA00E40AD828080039
:1001D000831203138910091014308316E5000030D0
:1001E000E6003B208312031389143830EC009F2073
:1001F00005308316E5000030E6003B2038308312DE
:100200000313EC009F2001308316E5000030E60068
:100210003B20383083120313EC009F200830EC00A1
:100220009F200F30EC009F200130EC009F203830E1
:0C023000EC009F208030EC009F200800B4
:10023C0083120313E801E9016308EA006408EB0088
:10024C0080306406F00080307002031D2F290030CE
:10025C00630203183D290130E8000030E90063080F
:10026C00003CEA006408031C013EEB01EB026A0847
:10027C00EC006B08ED006508EE0054200630E6003B
:10028C000030E7006708003C031D4E296608003C5F
:10029C000318692966086507F20001306602F00050
:1002AC000030031C013E6702F100700865078400F2
:1002BC000008F00072088400700880000130E6022B
:1002CC00031CE70348296508840020308000680877
:1002DC00690403198729E601E701660865078400AC
:1002EC000008203A031D7E29E60A0319E70A732940
:1002FC000130E602031CE7036608650784002D3015
:04030C008000080065
:1003100098208A110A128000840ADF0A0319E00A71
:08032000F003031D8829080009
:100328009C220130831603138600880189018312F9
:1003380086018316811281118B170B178B160114F6
:10034800811401150C308312810054308316D500B6
:100358004530D6004D30D7005030D8004F30D90046
:100368002030DA005430DB004F30DC005430DD0040
:100378004130DE004C30DF00E8200C30EC009F20DC
:100388002130E300D5202008103A031DDA29A00106
:100398000C30810000305906031DD429013058065D
:1003A800031DD929DD0A0319DE0A212A0618EF29B7
:1003B80000305906031DE22900305806031DEF29B5
:1003C8000130D8000030D9000130EC009F20A03067
:1003D800E300D520212A0618212A00305906031DDA
:1003E800F72901305806031D212A0230D8000030B1
:1003F800D9000130EC009F20D530E300D5200B3028
:10040800FB002630FC005D30FD00FD0B092AFC0BCB
:10041800092AFB0B092A000000000130EC009F208C
:100428005D08E3005E08E400D530E5001E21D53004
:0E043800E300D5205A30E300D520C729222A40
:10053800203084003D3083120313F0002830DF00A0
:100548000230E0008821A03084003530F0006530AA
:10055800DF000230E00088215D3084000230F000C6
:0C0568009A30DF000230E000882108001B
:02045000003476
:100452005034523445345334533449344F344E3487
:100462004534203453343134203420342034203481
:1004720020342034203420342034203420342034DA
:1004820020342034203420342034203420342034CA
:1004920020342034203420342034203420342034BA
:1004A2005034413452344134203449344E34493486
:0E04B200433449344134523420342034003471
:0404C00000340034D0
:0604C40020347334003403
:1004CA005034523445345334533449344F344E340F
:1004DA004534203453343134203420342034203409
:1004EA002034203420342034203420342034203462
:1004FA002034203420342034203420342034203452
:10050A002034203420342034203420342034203441
:10051A00503441345234413420345034413452340A
:0A052A0041345234203420340034F0
:04053400003400345B
:02400E004A2F37
:00000001FF
